{
  "contractName": "Oracle",
  "abi": [
    {
      "inputs": [],
      "stateMutability": "nonpayable",
      "type": "constructor"
    },
    {
      "anonymous": false,
      "inputs": [],
      "name": "consumeAPI",
      "type": "event"
    },
    {
      "inputs": [],
      "name": "asteroids",
      "outputs": [
        {
          "internalType": "uint256",
          "name": "",
          "type": "uint256"
        }
      ],
      "stateMutability": "view",
      "type": "function",
      "constant": true
    },
    {
      "inputs": [],
      "name": "update",
      "outputs": [],
      "stateMutability": "nonpayable",
      "type": "function"
    },
    {
      "inputs": [
        {
          "internalType": "uint256",
          "name": "_num",
          "type": "uint256"
        }
      ],
      "name": "setAsteroids",
      "outputs": [],
      "stateMutability": "nonpayable",
      "type": "function"
    }
  ],
  "bytecode": "0x608060405234801561001057600080fd5b50336000806101000a81548173ffffffffffffffffffffffffffffffffffffffff021916908373ffffffffffffffffffffffffffffffffffffffff16021790555061033a806100606000396000f3fe608060405234801561001057600080fd5b50600436106100415760003560e01c80633b2dcfff146100465780634c5bb4f314610062578063a2e6204514610080575b600080fd5b610060600480360381019061005b91906101f9565b61008a565b005b61006a610122565b60405161007791906102b7565b60405180910390f35b610088610128565b005b60008054906101000a900473ffffffffffffffffffffffffffffffffffffffff1673ffffffffffffffffffffffffffffffffffffffff163373ffffffffffffffffffffffffffffffffffffffff1614610118576040517f08c379a000000000000000000000000000000000000000000000000000000000815260040161010f90610297565b60405180910390fd5b8060018190555050565b60015481565b60008054906101000a900473ffffffffffffffffffffffffffffffffffffffff1673ffffffffffffffffffffffffffffffffffffffff163373ffffffffffffffffffffffffffffffffffffffff16146101b6576040517f08c379a00000000000000000000000000000000000000000000000000000000081526004016101ad90610297565b60405180910390fd5b7f6da442d094ca608f1fad85fc6397d69ce0afadf04f9905f180d6087ae23073b560405160405180910390a1565b6000813590506101f3816102ed565b92915050565b60006020828403121561020b57600080fd5b6000610219848285016101e4565b91505092915050565b600061022f6034836102d2565b91507f596f7520646f206e6f742068617665207065726d697373696f6e7320746f206560008301527f78656375746520746869732066756e6374696f6e0000000000000000000000006020830152604082019050919050565b610291816102e3565b82525050565b600060208201905081810360008301526102b081610222565b9050919050565b60006020820190506102cc6000830184610288565b92915050565b600082825260208201905092915050565b6000819050919050565b6102f6816102e3565b811461030157600080fd5b5056fea2646970667358221220d2b70bc200cf737626895e4ee0c5697abeca0464eff1725f2736b1adb12cb5ae64736f6c63430008000033",
  "immutableReferences": {},
  "source": "// SPDX-License-Identifier: MIT\r\n// API: https://api.nasa.gov/neo/rest/v1/feed?start_date=START_DATE&end_date=END_DATE&api_key=API_KEY \r\npragma solidity >=0.4.22 <0.9.0;\r\n\r\ncontract Oracle {\r\n\r\n    address owner;\r\n    uint public asteroids;\r\n\r\n    //Event that receives data from the oracle\r\n    event consumeAPI();\r\n\r\n    constructor() {\r\n        owner = msg.sender;\r\n    }\r\n\r\n    //get API data\r\n    function update() public Owner {\r\n        emit consumeAPI();\r\n    }\r\n\r\n    //set API data\r\n    function setAsteroids(uint _num) public Owner {\r\n        asteroids = _num;\r\n    }\r\n\r\n    modifier Owner(){\r\n        require(msg.sender == owner, \"You do not have permissions to execute this function\");\r\n        _;\r\n    }\r\n    \r\n}",
  "sourcePath": "C:\\Users\\CDPal\\Desktop\\Programación\\Truffle\\Dapps con Truffle y React\\03-Truffle Oraculo\\contracts\\Oracle.sol",
  "compiler": {
    "name": "solc",
    "version": "0.8.0+commit.c7dfd78e.Emscripten.clang"
  },
  "schemaVersion": "3.4.2",
  "updatedAt": "2022-09-21T11:29:15.480Z",
  "networkType": "ethereum",
  "devdoc": {
    "kind": "dev",
    "methods": {},
    "version": 1
  },
  "userdoc": {
    "kind": "user",
    "methods": {},
    "version": 1
  }
}